{
  "contractName": "ConvertLib",
  "abi": [
    {
      "constant": true,
      "inputs": [
        {
          "name": "amount",
          "type": "uint256"
        },
        {
          "name": "conversionRate",
          "type": "uint256"
        }
      ],
      "name": "convert",
      "outputs": [
        {
          "name": "convertedAmount",
          "type": "uint256"
        }
      ],
      "payable": false,
      "stateMutability": "pure",
      "type": "function",
      "signature": "0x96e4ee3d"
    },
    {
      "constant": true,
      "inputs": [],
      "name": "NoExitWhile",
      "outputs": [
        {
          "name": "retTrue",
          "type": "bool"
        }
      ],
      "payable": false,
      "stateMutability": "pure",
      "type": "function",
      "signature": "0xa4149924"
    }
  ],
  "bytecode": "0x610122610030600b82828239805160001a6073146000811461002057610022565bfe5b5030600052607381538281f3fe73000000000000000000000000000000000000000030146080604052600436106060576000357c0100000000000000000000000000000000000000000000000000000000900463ffffffff16806396e4ee3d146065578063a41499241460ae575b600080fd5b609860048036036040811015607957600080fd5b81019080803590602001909291908035906020019092919050505060ce565b6040518082815260200191505060405180910390f35b60b460e2565b604051808215151515815260200191505060405180910390f35b600060d660e2565b50818302905092915050565b60005b60011560ef5760e5565b600190509056fea165627a7a723058202432822482aba93831c7142b634be78433c1a07fe93c575c063f0642c46b96d40029",
  "source": "pragma solidity >=0.4.25 <0.6.0;\n\nlibrary ConvertLib{\n\tfunction convert(uint amount,uint conversionRate) public pure returns (uint convertedAmount)\n\t{\n\t\tNoExitWhile();\n\t\treturn amount * conversionRate;\n\t}\n\tfunction NoExitWhile() public pure returns (bool retTrue)\n\t{\n\t\twhile(true){}\n\t\treturn true;\n\t}\n}\n",
  "sourcePath": "C:\\code\\JCB\\contracts\\ConvertLib.sol",
  "compiler": {
    "name": "solc",
    "version": "0.5.0+commit.1d4f565a.Emscripten.clang"
  },
  "schemaVersion": "3.0.2",
  "updatedAt": "2019-03-17T07:23:58.240Z",
  "devdoc": {
    "methods": {}
  },
  "userdoc": {
    "methods": {}
  }
}