{
  "contractName": "Auth",
  "abi": [
    {
      "constant": true,
      "inputs": [
        {
          "name": "hash",
          "type": "bytes32"
        },
        {
          "name": "v",
          "type": "uint8"
        },
        {
          "name": "r",
          "type": "bytes32"
        },
        {
          "name": "s",
          "type": "bytes32"
        }
      ],
      "name": "verify",
      "outputs": [
        {
          "name": "signAddress",
          "type": "address"
        }
      ],
      "payable": false,
      "stateMutability": "pure",
      "type": "function",
      "signature": "0xf1835db7"
    }
  ],
  "bytecode": "0x608060405234801561001057600080fd5b50610181806100206000396000f3fe608060405260043610610041576000357c0100000000000000000000000000000000000000000000000000000000900463ffffffff168063f1835db714610046575b600080fd5b34801561005257600080fd5b506100a06004803603608081101561006957600080fd5b8101908080359060200190929190803560ff16906020019092919080359060200190929190803590602001909291905050506100e2565b604051808273ffffffffffffffffffffffffffffffffffffffff1673ffffffffffffffffffffffffffffffffffffffff16815260200191505060405180910390f35b600060018585858560405160008152602001604052604051808581526020018460ff1660ff1681526020018381526020018281526020019450505050506020604051602081039080840390855afa158015610141573d6000803e3d6000fd5b50505060206040510351905094935050505056fea165627a7a7230582082f1ff35d1e3d2ccf00e78067da7a1c7bf6eae60e567cb67b23ee4e5cf0f68060029",
  "source": "pragma solidity >=0.4.21 <0.6.0;\r\n\r\ncontract Auth {      \r\n    function verify(bytes32 hash, uint8 v, bytes32 r, bytes32 s) public pure returns(address signAddress) {\r\n        return ecrecover(hash, v, r, s);\r\n    }\r\n}\r\n",
  "sourcePath": "C:/code/debugContract/contracts/Auth.sol",
  "compiler": {
    "name": "solc",
    "version": "0.5.0+commit.1d4f565a.Emscripten.clang"
  },
  "schemaVersion": "3.0.2",
  "updatedAt": "2019-03-16T09:01:33.655Z",
  "devdoc": {
    "methods": {}
  },
  "userdoc": {
    "methods": {}
  }
}