{
  "contractName": "GreatPay",
  "abi": [
    {
      "constant": true,
      "inputs": [],
      "name": "seller",
      "outputs": [
        {
          "name": "",
          "type": "address"
        }
      ],
      "payable": false,
      "stateMutability": "view",
      "type": "function",
      "signature": "0x08551a53"
    },
    {
      "constant": true,
      "inputs": [],
      "name": "startDate",
      "outputs": [
        {
          "name": "",
          "type": "uint256"
        }
      ],
      "payable": false,
      "stateMutability": "view",
      "type": "function",
      "signature": "0x0b97bc86"
    },
    {
      "constant": true,
      "inputs": [],
      "name": "dealTimeout",
      "outputs": [
        {
          "name": "",
          "type": "uint256"
        }
      ],
      "payable": false,
      "stateMutability": "view",
      "type": "function",
      "signature": "0x3c210e3c"
    },
    {
      "constant": true,
      "inputs": [],
      "name": "buyer",
      "outputs": [
        {
          "name": "",
          "type": "address"
        }
      ],
      "payable": false,
      "stateMutability": "view",
      "type": "function",
      "signature": "0x7150d8ae"
    },
    {
      "constant": true,
      "inputs": [],
      "name": "dealPrice",
      "outputs": [
        {
          "name": "",
          "type": "uint256"
        }
      ],
      "payable": false,
      "stateMutability": "view",
      "type": "function",
      "signature": "0x71eba703"
    },
    {
      "constant": true,
      "inputs": [],
      "name": "dealStatus",
      "outputs": [
        {
          "name": "",
          "type": "uint256"
        }
      ],
      "payable": false,
      "stateMutability": "view",
      "type": "function",
      "signature": "0xb85477c5"
    },
    {
      "inputs": [
        {
          "name": "to",
          "type": "address"
        },
        {
          "name": "timeout",
          "type": "uint256"
        },
        {
          "name": "price",
          "type": "uint256"
        }
      ],
      "payable": false,
      "stateMutability": "nonpayable",
      "type": "constructor",
      "signature": "constructor"
    },
    {
      "constant": false,
      "inputs": [],
      "name": "Pay",
      "outputs": [],
      "payable": true,
      "stateMutability": "payable",
      "type": "function",
      "signature": "0x537a924c"
    },
    {
      "constant": false,
      "inputs": [],
      "name": "DealSuccess",
      "outputs": [],
      "payable": true,
      "stateMutability": "payable",
      "type": "function",
      "signature": "0xafc2104e"
    },
    {
      "constant": false,
      "inputs": [
        {
          "name": "hash",
          "type": "bytes32"
        },
        {
          "name": "v",
          "type": "uint8"
        },
        {
          "name": "r",
          "type": "bytes32"
        },
        {
          "name": "s",
          "type": "bytes32"
        }
      ],
      "name": "DealFailed",
      "outputs": [],
      "payable": true,
      "stateMutability": "payable",
      "type": "function",
      "signature": "0xf1d9062b"
    },
    {
      "constant": false,
      "inputs": [],
      "name": "DealTimeout",
      "outputs": [],
      "payable": true,
      "stateMutability": "payable",
      "type": "function",
      "signature": "0xca8c9edc"
    }
  ],
  "bytecode": "0x608060405234801561001057600080fd5b50604051606080610b198339810180604052606081101561003057600080fd5b8101908080519060200190929190805190602001909291908051906020019092919050505082600160006101000a81548173ffffffffffffffffffffffffffffffffffffffff021916908373ffffffffffffffffffffffffffffffffffffffff160217905550336000806101000a81548173ffffffffffffffffffffffffffffffffffffffff021916908373ffffffffffffffffffffffffffffffffffffffff1602179055504260028190555081600381905550806004819055506001600581905550505050610a14806101056000396000f3fe6080604052600436106100a4576000357c0100000000000000000000000000000000000000000000000000000000900463ffffffff16806308551a53146100a95780630b97bc86146101005780633c210e3c1461012b578063537a924c146101565780637150d8ae1461016057806371eba703146101b7578063afc2104e146101e2578063b85477c5146101ec578063ca8c9edc14610217578063f1d9062b14610221575b600080fd5b3480156100b557600080fd5b506100be610270565b604051808273ffffffffffffffffffffffffffffffffffffffff1673ffffffffffffffffffffffffffffffffffffffff16815260200191505060405180910390f35b34801561010c57600080fd5b50610115610296565b6040518082815260200191505060405180910390f35b34801561013757600080fd5b5061014061029c565b6040518082815260200191505060405180910390f35b61015e6102a2565b005b34801561016c57600080fd5b506101756102b8565b604051808273ffffffffffffffffffffffffffffffffffffffff1673ffffffffffffffffffffffffffffffffffffffff16815260200191505060405180910390f35b3480156101c357600080fd5b506101cc6102dd565b6040518082815260200191505060405180910390f35b6101ea6102e3565b005b3480156101f857600080fd5b50610201610473565b6040518082815260200191505060405180910390f35b61021f610479565b005b61026e6004803603608081101561023757600080fd5b8101908080359060200190929190803560ff169060200190929190803590602001909291908035906020019092919050505061059c565b005b600160009054906101000a900473ffffffffffffffffffffffffffffffffffffffff1681565b60025481565b60035481565b600454341015156102b65760026005819055505b565b6000809054906101000a900473ffffffffffffffffffffffffffffffffffffffff1681565b60045481565b60026005541415610471576000809054906101000a900473ffffffffffffffffffffffffffffffffffffffff1673ffffffffffffffffffffffffffffffffffffffff163373ffffffffffffffffffffffffffffffffffffffff161415156103d8576040517f08c379a00000000000000000000000000000000000000000000000000000000081526004018080602001828103825260228152602001807f6f6e6c792062757965722063616e2063616c6c20746869732066756e6374696f81526020017f6e2100000000000000000000000000000000000000000000000000000000000081525060400191505060405180910390fd5b600160009054906101000a900473ffffffffffffffffffffffffffffffffffffffff1673ffffffffffffffffffffffffffffffffffffffff166108fc3073ffffffffffffffffffffffffffffffffffffffff16319081150290604051600060405180830381858888f19350505050158015610457573d6000803e3d6000fd5b503373ffffffffffffffffffffffffffffffffffffffff16ff5b565b60055481565b6002600554141561059a574260035460025401101515610501576040517f08c379a000000000000000000000000000000000000000000000000000000000815260040180806020018281038252600c8152602001807f706c65617365207761697421000000000000000000000000000000000000000081525060200191505060405180910390fd5b600160009054906101000a900473ffffffffffffffffffffffffffffffffffffffff1673ffffffffffffffffffffffffffffffffffffffff166108fc3073ffffffffffffffffffffffffffffffffffffffff16319081150290604051600060405180830381858888f19350505050158015610580573d6000803e3d6000fd5b503373ffffffffffffffffffffffffffffffffffffffff16ff5b565b600260055414156109e25760606040805190810160405280601c81526020017f19457468657265756d205369676e6564204d6573736167653a0a3332000000008152509050600081866040516020018083805190602001908083835b60208310151561061d57805182526020820191506020810190506020830392506105f8565b6001836020036101000a03801982511681845116808217855250505050505090500182815260200192505050604051602081830303815290604052805190602001209050600060018287878760405160008152602001604052604051808581526020018460ff1660ff1681526020018381526020018281526020019450505050506020604051602081039080840390855afa1580156106c0573d6000803e3d6000fd5b5050506020604051035190506000809054906101000a900473ffffffffffffffffffffffffffffffffffffffff1673ffffffffffffffffffffffffffffffffffffffff168173ffffffffffffffffffffffffffffffffffffffff1614806107745750600160009054906101000a900473ffffffffffffffffffffffffffffffffffffffff1673ffffffffffffffffffffffffffffffffffffffff168173ffffffffffffffffffffffffffffffffffffffff16145b15156107e8576040517f08c379a00000000000000000000000000000000000000000000000000000000081526004018080602001828103825260108152602001807f7369676e61747572652077726f6e67210000000000000000000000000000000081525060200191505060405180910390fd5b6000809054906101000a900473ffffffffffffffffffffffffffffffffffffffff1673ffffffffffffffffffffffffffffffffffffffff168173ffffffffffffffffffffffffffffffffffffffff161480156108915750600160009054906101000a900473ffffffffffffffffffffffffffffffffffffffff1673ffffffffffffffffffffffffffffffffffffffff163373ffffffffffffffffffffffffffffffffffffffff16145b806109415750600160009054906101000a900473ffffffffffffffffffffffffffffffffffffffff1673ffffffffffffffffffffffffffffffffffffffff168173ffffffffffffffffffffffffffffffffffffffff1614801561094057506000809054906101000a900473ffffffffffffffffffffffffffffffffffffffff1673ffffffffffffffffffffffffffffffffffffffff163373ffffffffffffffffffffffffffffffffffffffff16145b5b156109de576000809054906101000a900473ffffffffffffffffffffffffffffffffffffffff1673ffffffffffffffffffffffffffffffffffffffff166108fc3073ffffffffffffffffffffffffffffffffffffffff16319081150290604051600060405180830381858888f193505050501580156109c4573d6000803e3d6000fd5b503373ffffffffffffffffffffffffffffffffffffffff16ff5b5050505b5050505056fea165627a7a7230582086342fc3fa222a5f9a4e9bc4da28a2400cfdb049b2c33439f119967ca97962400029",
  "source": "pragma solidity >=0.4.21 <0.6.0;\r\n\r\ncontract GreatPay {\r\n\r\n    address payable public buyer;\r\n    address payable public seller;\r\n    uint public startDate;\r\n    uint public dealTimeout;\r\n    uint public dealPrice;\r\n    uint public dealStatus;//1表示已经购买，没有付款；2表示已经付款\r\n\r\n    constructor(address to, uint timeout, uint price) public {\r\n        seller = address(uint160(to));\r\n        buyer = msg.sender;\r\n        startDate = now;\r\n        dealTimeout = timeout;\r\n        dealPrice = price;\r\n        dealStatus = 1;\r\n    }\r\n    function Pay() public payable{\r\n        //buyer建立了交易之后，所有人都可以付款\r\n        if(msg.value >= dealPrice)\r\n            dealStatus = 2;\r\n    }\r\n\r\n    //只有buyer可以调用\r\n    function DealSuccess() public payable {\r\n        if(dealStatus == 2)\r\n        {\r\n            require(msg.sender == buyer, \"only buyer can call this function!\");\r\n            seller.transfer(address(this).balance);\r\n            selfdestruct(msg.sender);\r\n        }        \r\n    }\r\n\r\n    //需要买家或卖家调用，需要双方签名\r\n    function DealFailed(bytes32 hash, uint8 v, bytes32 r, bytes32 s) public payable {\r\n        if(dealStatus == 2){\r\n            // get signer from signature\r\n            bytes memory prefix = \"\\x19Ethereum Signed Message:\\n32\";\r\n            bytes32 prefixedHash = keccak256(abi.encodePacked(prefix, hash));\r\n            address signer = ecrecover(prefixedHash, v, r, s);\r\n\r\n            // 保证签名正确\r\n            require(signer == buyer || signer == seller, \"signature wrong!\");\r\n\r\n            if ((signer == buyer && msg.sender == seller) || (signer == seller && msg.sender == buyer)){\r\n                buyer.transfer(address(this).balance);\r\n                selfdestruct(msg.sender);\r\n            }\r\n        }        \r\n    }\r\n\r\n    function DealTimeout() public payable {\r\n        if(dealStatus == 2){\r\n            require(startDate + dealTimeout < now, \"please wait!\");\r\n            seller.transfer(address(this).balance);\r\n            selfdestruct(msg.sender);\r\n        }\r\n        \r\n    }\r\n}",
  "sourcePath": "C:/code/GreatPay/contracts/GreatPay.sol",
  "compiler": {
    "name": "solc",
    "version": "0.5.0+commit.1d4f565a.Emscripten.clang"
  },
  "schemaVersion": "3.0.2",
  "updatedAt": "2019-03-19T03:46:56.217Z",
  "devdoc": {
    "methods": {}
  },
  "userdoc": {
    "methods": {}
  }
}